{
  "contractName": "RedPacket",
  "abi": [
    {
      "inputs": [],
      "payable": false,
      "stateMutability": "nonpayable",
      "type": "constructor"
    },
    {
      "anonymous": false,
      "inputs": [
        {
          "indexed": false,
          "name": "",
          "type": "uint256"
        }
      ],
      "name": "createPacketSuccess",
      "type": "event"
    },
    {
      "anonymous": false,
      "inputs": [
        {
          "indexed": false,
          "name": "",
          "type": "uint256"
        }
      ],
      "name": "getPacketSuccess",
      "type": "event"
    },
    {
      "constant": true,
      "inputs": [],
      "name": "getUser",
      "outputs": [
        {
          "name": "",
          "type": "uint256"
        },
        {
          "name": "",
          "type": "uint256[]"
        },
        {
          "name": "",
          "type": "uint256[]"
        }
      ],
      "payable": false,
      "stateMutability": "view",
      "type": "function"
    },
    {
      "constant": true,
      "inputs": [
        {
          "name": "_key",
          "type": "uint256"
        }
      ],
      "name": "getPacketstruct",
      "outputs": [
        {
          "name": "",
          "type": "uint256"
        },
        {
          "name": "",
          "type": "address"
        },
        {
          "name": "",
          "type": "uint256"
        },
        {
          "name": "",
          "type": "uint256"
        },
        {
          "name": "",
          "type": "uint256"
        },
        {
          "name": "",
          "type": "uint256"
        },
        {
          "name": "",
          "type": "bool"
        },
        {
          "name": "",
          "type": "bool"
        },
        {
          "name": "",
          "type": "bool"
        },
        {
          "name": "",
          "type": "uint256[]"
        },
        {
          "name": "",
          "type": "uint256"
        },
        {
          "name": "",
          "type": "string"
        }
      ],
      "payable": false,
      "stateMutability": "view",
      "type": "function"
    },
    {
      "constant": true,
      "inputs": [],
      "name": "getPacketkey",
      "outputs": [
        {
          "name": "",
          "type": "uint256"
        }
      ],
      "payable": false,
      "stateMutability": "view",
      "type": "function"
    },
    {
      "constant": false,
      "inputs": [
        {
          "name": "_money",
          "type": "uint256"
        },
        {
          "name": "_all_count",
          "type": "uint256"
        },
        {
          "name": "_ave",
          "type": "bool"
        },
        {
          "name": "_crypto",
          "type": "bool"
        },
        {
          "name": "_password",
          "type": "string"
        },
        {
          "name": "_content",
          "type": "string"
        }
      ],
      "name": "createPacket",
      "outputs": [],
      "payable": true,
      "stateMutability": "payable",
      "type": "function"
    },
    {
      "constant": true,
      "inputs": [],
      "name": "getRecordkey",
      "outputs": [
        {
          "name": "",
          "type": "uint256"
        }
      ],
      "payable": false,
      "stateMutability": "view",
      "type": "function"
    },
    {
      "constant": true,
      "inputs": [],
      "name": "getFinishkey",
      "outputs": [
        {
          "name": "",
          "type": "uint256"
        }
      ],
      "payable": false,
      "stateMutability": "view",
      "type": "function"
    },
    {
      "constant": true,
      "inputs": [
        {
          "name": "_key",
          "type": "uint256"
        }
      ],
      "name": "getFinishpacket",
      "outputs": [
        {
          "name": "",
          "type": "uint256"
        }
      ],
      "payable": false,
      "stateMutability": "view",
      "type": "function"
    },
    {
      "constant": true,
      "inputs": [
        {
          "name": "_record_key",
          "type": "uint256"
        }
      ],
      "name": "getRecord",
      "outputs": [
        {
          "name": "",
          "type": "uint256"
        },
        {
          "name": "",
          "type": "address"
        },
        {
          "name": "",
          "type": "uint256"
        },
        {
          "name": "",
          "type": "uint256"
        }
      ],
      "payable": false,
      "stateMutability": "view",
      "type": "function"
    },
    {
      "constant": false,
      "inputs": [
        {
          "name": "_packet_key",
          "type": "uint256"
        },
        {
          "name": "_password",
          "type": "string"
        }
      ],
      "name": "getPacket",
      "outputs": [],
      "payable": false,
      "stateMutability": "nonpayable",
      "type": "function"
    }
  ],
  "bytecode": "0x6080604052620f42406000556001805560016002556001600355600160045534801561002a57600080fd5b5033600560006101000a81548173ffffffffffffffffffffffffffffffffffffffff021916908373ffffffffffffffffffffffffffffffffffffffff1602179055506127028061007b6000396000f300608060405260043610610099576000357c0100000000000000000000000000000000000000000000000000000000900463ffffffff16806303e9e6091461009e578063384b16fa14610120578063574dd39a1461014b57806377874c2d146101be578063832880e7146101ff578063915790ea146102ba578063e1fcab6114610388578063e8ac331e146103b3578063ec00d63c146103de575b600080fd5b3480156100aa57600080fd5b506100c96004803603810190808035906020019092919050505061054a565b604051808581526020018473ffffffffffffffffffffffffffffffffffffffff1673ffffffffffffffffffffffffffffffffffffffff16815260200183815260200182815260200194505050505060405180910390f35b34801561012c57600080fd5b50610135610625565b6040518082815260200191505060405180910390f35b34801561015757600080fd5b506101bc60048036038101908080359060200190929190803590602001908201803590602001908080601f016020809104026020016040519081016040528093929190818152602001838380828437820191505050505050919291929050505061062f565b005b3480156101ca57600080fd5b506101e9600480360381019080803590602001909291905050506106c2565b6040518082815260200191505060405180910390f35b34801561020b57600080fd5b506102146106df565b604051808481526020018060200180602001838103835285818151815260200191508051906020019060200280838360005b83811015610261578082015181840152602081019050610246565b50505050905001838103825284818151815260200191508051906020019060200280838360005b838110156102a3578082015181840152602081019050610288565b505050509050019550505050505060405180910390f35b6103866004803603810190808035906020019092919080359060200190929190803515159060200190929190803515159060200190929190803590602001908201803590602001908080601f0160208091040260200160405190810160405280939291908181526020018383808284378201915050505050509192919290803590602001908201803590602001908080601f0160208091040260200160405190810160405280939291908181526020018383808284378201915050505050509192919290505050610814565b005b34801561039457600080fd5b5061039d610abc565b6040518082815260200191505060405180910390f35b3480156103bf57600080fd5b506103c8610ac6565b6040518082815260200191505060405180910390f35b3480156103ea57600080fd5b5061040960048036038101908080359060200190929190505050610ad0565b604051808d81526020018c73ffffffffffffffffffffffffffffffffffffffff1673ffffffffffffffffffffffffffffffffffffffff1681526020018b81526020018a81526020018981526020018881526020018715151515815260200186151515158152602001851515151581526020018060200184815260200180602001838103835286818151815260200191508051906020019060200280838360005b838110156104c45780820151818401526020810190506104a9565b50505050905001838103825284818151815260200191508051906020019080838360005b838110156105035780820151818401526020810190506104e8565b50505050905090810190601f1680156105305780820380516001836020036101000a031916815260200191505b509e50505050505050505050505050505060405180910390f35b6000806000806105586123bc565b6008600087815260200190815260200160002060c060405190810160405290816000820154815260200160018201548152602001600282015481526020016003820160009054906101000a900473ffffffffffffffffffffffffffffffffffffffff1673ffffffffffffffffffffffffffffffffffffffff1673ffffffffffffffffffffffffffffffffffffffff1681526020016004820154815260200160058201548152505090508060400151816060015182608001518360a001519450945094509450509193509193565b6000600454905090565b6000151561063b610e16565b1515141561064c5761064b610f46565b5b61065582611008565b151561066057600080fd5b61066a8282611049565b151561067557600080fd5b61067e82611352565b610687826118eb565b7fe219fa60eba396556c1bd767c58b3259cd8b01e25b2956627d5d0fb90f398cf0826040518082815260200191505060405180910390a15050565b600060096000838152602001908152602001600020549050919050565b60006060806106ec612409565b600760003373ffffffffffffffffffffffffffffffffffffffff1673ffffffffffffffffffffffffffffffffffffffff16815260200190815260200160002060606040519081016040529081600082015481526020016001820180548060200260200160405190810160405280929190818152602001828054801561079057602002820191906000526020600020905b81548152602001906001019080831161077c575b50505050508152602001600282018054806020026020016040519081016040528092919081815260200182805480156107e857602002820191906000526020600020905b8154815260200190600101908083116107d4575b505050505081525050905080600001518160200151826040015181915080905093509350935050909192565b6000606061082061242b565b878911151561082e57600080fd5b6000548902341015151561084157600080fd5b6000151561084d610e16565b1515141561085e5761085d610f46565b5b610866610abc565b92506101c0604051908101604052808481526020013373ffffffffffffffffffffffffffffffffffffffff1681526020014281526020016000548b02815260200189815260200160008152602001881515815260200187151581526020018681526020016000151581526020018381526020016001151581526020016000548b02815260200185815250905080600660008581526020019081526020016000206000820151816000015560208201518160010160006101000a81548173ffffffffffffffffffffffffffffffffffffffff021916908373ffffffffffffffffffffffffffffffffffffffff16021790555060408201518160020155606082015181600301556080820151816004015560a0820151816005015560c08201518160060160006101000a81548160ff02191690831515021790555060e08201518160060160016101000a81548160ff0219169083151502179055506101008201518160070190805190602001906109dc9291906124b9565b506101208201518160080160006101000a81548160ff021916908315150217905550610140820151816009019080519060200190610a1b929190612539565b5061016082015181600a0160006101000a81548160ff02191690831515021790555061018082015181600b01556101a082015181600c019080519060200190610a659291906124b9565b50905050610a71611a4b565b610a7a83611a5f565b7f41af7647c3ae61e9729a0ce2d247ace82fc673bcdd85472e6400174f5ce3abb7836040518082815260200191505060405180910390a1505050505050505050565b6000600154905090565b6000600254905090565b6000806000806000806000806000606060006060610aec61242b565b600660008f81526020019081526020016000206101c06040519081016040529081600082015481526020016001820160009054906101000a900473ffffffffffffffffffffffffffffffffffffffff1673ffffffffffffffffffffffffffffffffffffffff1673ffffffffffffffffffffffffffffffffffffffff168152602001600282015481526020016003820154815260200160048201548152602001600582015481526020016006820160009054906101000a900460ff161515151581526020016006820160019054906101000a900460ff16151515158152602001600782018054600181600116156101000203166002900480601f016020809104026020016040519081016040528092919081815260200182805460018160011615610100020316600290048015610c635780601f10610c3857610100808354040283529160200191610c63565b820191906000526020600020905b815481529060010190602001808311610c4657829003601f168201915b505050505081526020016008820160009054906101000a900460ff1615151515815260200160098201805480602002602001604051908101604052809291908181526020018280548015610cd657602002820191906000526020600020905b815481526020019060010190808311610cc2575b50505050508152602001600a820160009054906101000a900460ff16151515158152602001600b8201548152602001600c82018054600181600116156101000203166002900480601f016020809104026020016040519081016040528092919081815260200182805460018160011615610100020316600290048015610d9d5780601f10610d7257610100808354040283529160200191610d9d565b820191906000526020600020905b815481529060010190602001808311610d8057829003601f168201915b5050505050815250509050806000015181602001518260400151836060015184608001518560a001518660c001518760e001518861012001518961014001518a61018001518b6101a001518292508090509c509c509c509c509c509c509c509c509c509c509c509c505091939597999b5091939597999b565b6000610e20612409565b600760003373ffffffffffffffffffffffffffffffffffffffff1673ffffffffffffffffffffffffffffffffffffffff168152602001908152602001600020606060405190810160405290816000820154815260200160018201805480602002602001604051908101604052809291908181526020018280548015610ec457602002820191906000526020600020905b815481526020019060010190808311610eb0575b5050505050815260200160028201805480602002602001604051908101604052809291908181526020018280548015610f1c57602002820191906000526020600020905b815481526020019060010190808311610f08575b5050505050815250509050600081600001511115610f3d5760019150610f42565b600091505b5090565b6000606080610f53612409565b610f5b611bbf565b935060606040519081016040528085815260200184815260200183815250905080600760003373ffffffffffffffffffffffffffffffffffffffff1673ffffffffffffffffffffffffffffffffffffffff168152602001908152602001600020600082015181600001556020820151816001019080519060200190610fe1929190612539565b506040820151816002019080519060200190610ffe929190612539565b5090505050505050565b600080151561101683611bc9565b151514801561103157506000151561102d83611e9d565b1515145b1561103f5760019050611044565b600090505b919050565b600061105361242b565b600660008581526020019081526020016000206101c06040519081016040529081600082015481526020016001820160009054906101000a900473ffffffffffffffffffffffffffffffffffffffff1673ffffffffffffffffffffffffffffffffffffffff1673ffffffffffffffffffffffffffffffffffffffff168152602001600282015481526020016003820154815260200160048201548152602001600582015481526020016006820160009054906101000a900460ff161515151581526020016006820160019054906101000a900460ff16151515158152602001600782018054600181600116156101000203166002900480601f0160208091040260200160405190810160405280929190818152602001828054600181600116156101000203166002900480156111ca5780601f1061119f576101008083540402835291602001916111ca565b820191906000526020600020905b8154815290600101906020018083116111ad57829003601f168201915b505050505081526020016008820160009054906101000a900460ff161515151581526020016009820180548060200260200160405190810160405280929190818152602001828054801561123d57602002820191906000526020600020905b815481526020019060010190808311611229575b50505050508152602001600a820160009054906101000a900460ff16151515158152602001600b8201548152602001600c82018054600181600116156101000203166002900480601f0160208091040260200160405190810160405280929190818152602001828054600181600116156101000203166002900480156113045780601f106112d957610100808354040283529160200191611304565b820191906000526020600020905b8154815290600101906020018083116112e757829003601f168201915b5050505050815250509050600015158160e0015115151415611329576001915061134b565b6113388382610100015161200d565b15611346576001915061134b565b600091505b5092915050565b60008060008060008060066000888152602001908152602001600020955085600a0160009054906101000a900460ff16151561138d57600080fd5b600086600a0160006101000a81548160ff0219169083151502179055508560066000898152602001908152602001600020600082015481600001556001820160009054906101000a900473ffffffffffffffffffffffffffffffffffffffff168160010160006101000a81548173ffffffffffffffffffffffffffffffffffffffff021916908373ffffffffffffffffffffffffffffffffffffffff160217905550600282015481600201556003820154816003015560048201548160040155600582015481600501556006820160009054906101000a900460ff168160060160006101000a81548160ff0219169083151502179055506006820160019054906101000a900460ff168160060160016101000a81548160ff021916908315150217905550600782018160070190805460018160011615610100020316600290046114d8929190612586565b506008820160009054906101000a900460ff168160080160006101000a81548160ff021916908315150217905550600982018160090190805461151c92919061260d565b50600a820160009054906101000a900460ff1681600a0160006101000a81548160ff021916908315150217905550600b82015481600b0155600c820181600c01908054600181600116156101000203166002900461157b929190612586565b5090505085600501600081548092919060010191905055508560040154866005015414156115af5785600b01549450611601565b8560060160009054906101000a900460ff16156115e157856004015486600301548115156115d957fe5b049450611600565b856005015486600401540386600b01540393506115fd8461215d565b94505b5b8560050154925085600401548660050154141561163f5760018660080160006101000a81548160ff02191690831515021790555061163e87612281565b5b85600901915061164d610ac6565b905061165b818885886122b1565b81819080600181540180825580915050906001820390600052602060002001600090919290919091505550818660090190805461169992919061265f565b508486600b01540386600b0181905550600186600a0160006101000a81548160ff0219169083151502179055508560066000898152602001908152602001600020600082015481600001556001820160009054906101000a900473ffffffffffffffffffffffffffffffffffffffff168160010160006101000a81548173ffffffffffffffffffffffffffffffffffffffff021916908373ffffffffffffffffffffffffffffffffffffffff160217905550600282015481600201556003820154816003015560048201548160040155600582015481600501556006820160009054906101000a900460ff168160060160006101000a81548160ff0219169083151502179055506006820160019054906101000a900460ff168160060160016101000a81548160ff021916908315150217905550600782018160070190805460018160011615610100020316600290046117f4929190612586565b506008820160009054906101000a900460ff168160080160006101000a81548160ff021916908315150217905550600982018160090190805461183892919061260d565b50600a820160009054906101000a900460ff1681600a0160006101000a81548160ff021916908315150217905550600b82015481600b0155600c820181600c019080546001816001161561010002031660029004611897929190612586565b509050503373ffffffffffffffffffffffffffffffffffffffff166108fc869081150290604051600060405180830381858888f193505050501580156118e1573d6000803e3d6000fd5b5050505050505050565b600080600080600760003373ffffffffffffffffffffffffffffffffffffffff1673ffffffffffffffffffffffffffffffffffffffff168152602001908152602001600020935083600201925060019150600090505b82805490508110156119835784838281548110151561195c57fe5b906000526020600020015414156119765760009150611983565b8080600101915050611941565b8115611a44578285908060018154018082558091505090600182039060005260206000200160009091929091909150555082846002019080546119c792919061265f565b5083600760003373ffffffffffffffffffffffffffffffffffffffff1673ffffffffffffffffffffffffffffffffffffffff168152602001908152602001600020600082015481600001556001820181600101908054611a2892919061260d565b506002820181600201908054611a3f92919061260d565b509050505b5050505050565b600160008154809291906001019190505550565b600080600080600760003373ffffffffffffffffffffffffffffffffffffffff1673ffffffffffffffffffffffffffffffffffffffff168152602001908152602001600020935083600101925060019150600090505b8280549050811015611af757848382815481101515611ad057fe5b90600052602060002001541415611aea5760009150611af7565b8080600101915050611ab5565b8115611bb857828590806001815401808255809150509060018203906000526020600020016000909192909190915055508284600101908054611b3b92919061265f565b5083600760003373ffffffffffffffffffffffffffffffffffffffff1673ffffffffffffffffffffffffffffffffffffffff168152602001908152602001600020600082015481600001556001820181600101908054611b9c92919061260d565b506002820181600201908054611bb392919061260d565b509050505b5050505050565b6000600354905090565b6000611bd361242b565b600660008481526020019081526020016000206101c06040519081016040529081600082015481526020016001820160009054906101000a900473ffffffffffffffffffffffffffffffffffffffff1673ffffffffffffffffffffffffffffffffffffffff1673ffffffffffffffffffffffffffffffffffffffff168152602001600282015481526020016003820154815260200160048201548152602001600582015481526020016006820160009054906101000a900460ff161515151581526020016006820160019054906101000a900460ff16151515158152602001600782018054600181600116156101000203166002900480601f016020809104026020016040519081016040528092919081815260200182805460018160011615610100020316600290048015611d4a5780601f10611d1f57610100808354040283529160200191611d4a565b820191906000526020600020905b815481529060010190602001808311611d2d57829003601f168201915b505050505081526020016008820160009054906101000a900460ff1615151515815260200160098201805480602002602001604051908101604052809291908181526020018280548015611dbd57602002820191906000526020600020905b815481526020019060010190808311611da9575b50505050508152602001600a820160009054906101000a900460ff16151515158152602001600b8201548152602001600c82018054600181600116156101000203166002900480601f016020809104026020016040519081016040528092919081815260200182805460018160011615610100020316600290048015611e845780601f10611e5957610100808354040283529160200191611e84565b820191906000526020600020905b815481529060010190602001808311611e6757829003601f168201915b5050505050815250509050806101200151915050919050565b6000611ea7612409565b6060600080600760003373ffffffffffffffffffffffffffffffffffffffff1673ffffffffffffffffffffffffffffffffffffffff168152602001908152602001600020606060405190810160405290816000820154815260200160018201805480602002602001604051908101604052809291908181526020018280548015611f5057602002820191906000526020600020905b815481526020019060010190808311611f3c575b5050505050815260200160028201805480602002602001604051908101604052809291908181526020018280548015611fa857602002820191906000526020600020905b815481526020019060010190808311611f94575b50505050508152505093508360400151925060009150600090505b825181101561200157858382815181101515611fdb57fe5b906020019060200201511415611ff45760019150612001565b8080600101915050611fc3565b81945050505050919050565b600060608060008592508491508151835114151561202e5760009350612154565b600090505b825181101561214f57818181518110151561204a57fe5b9060200101517f010000000000000000000000000000000000000000000000000000000000000090047f0100000000000000000000000000000000000000000000000000000000000000027effffffffffffffffffffffffffffffffffffffffffffffffffffffffffffff191683828151811015156120c557fe5b9060200101517f010000000000000000000000000000000000000000000000000000000000000090047f0100000000000000000000000000000000000000000000000000000000000000027effffffffffffffffffffffffffffffffffffffffffffffffffffffffffffff19161415156121425760009350612154565b8080600101915050612033565b600193505b50505092915050565b60008060018360024233604051602001808381526020018273ffffffffffffffffffffffffffffffffffffffff1673ffffffffffffffffffffffffffffffffffffffff166c01000000000000000000000000028152601401925050506040516020818303038152906040526040518082805190602001908083835b6020831015156121fd57805182526020820191506020810190506020830392506121d8565b6001836020036101000a0380198251168184511680821785525050505050509050019150506020604051808303816000865af1158015612241573d6000803e3d6000fd5b5050506040513d602081101561225657600080fd5b81019080805190602001909291905050506001900481151561227457fe5b0601905080915050919050565b600061228b610625565b90508160096000838152602001908152602001600020819055506122ad6123a8565b5050565b6122b96123bc565b60c0604051908101604052808681526020018581526020018481526020013373ffffffffffffffffffffffffffffffffffffffff168152602001428152602001838152509050806008600087815260200190815260200160002060008201518160000155602082015181600101556040820151816002015560608201518160030160006101000a81548173ffffffffffffffffffffffffffffffffffffffff021916908373ffffffffffffffffffffffffffffffffffffffff1602179055506080820151816004015560a082015181600501559050506002600081548092919060010191905055505050505050565b600460008154809291906001019190505550565b60c060405190810160405280600081526020016000815260200160008152602001600073ffffffffffffffffffffffffffffffffffffffff16815260200160008152602001600081525090565b6060604051908101604052806000815260200160608152602001606081525090565b6101c06040519081016040528060008152602001600073ffffffffffffffffffffffffffffffffffffffff16815260200160008152602001600081526020016000815260200160008152602001600015158152602001600015158152602001606081526020016000151581526020016060815260200160001515815260200160008152602001606081525090565b828054600181600116156101000203166002900490600052602060002090601f016020900481019282601f106124fa57805160ff1916838001178555612528565b82800160010185558215612528579182015b8281111561252757825182559160200191906001019061250c565b5b50905061253591906126b1565b5090565b828054828255906000526020600020908101928215612575579160200282015b82811115612574578251825591602001919060010190612559565b5b50905061258291906126b1565b5090565b828054600181600116156101000203166002900490600052602060002090601f016020900481019282601f106125bf57805485556125fc565b828001600101855582156125fc57600052602060002091601f016020900482015b828111156125fb5782548255916001019190600101906125e0565b5b50905061260991906126b1565b5090565b82805482825590600052602060002090810192821561264e5760005260206000209182015b8281111561264d578254825591600101919060010190612632565b5b50905061265b91906126b1565b5090565b8280548282559060005260206000209081019282156126a05760005260206000209182015b8281111561269f578254825591600101919060010190612684565b5b5090506126ad91906126b1565b5090565b6126d391905b808211156126cf5760008160009055506001016126b7565b5090565b905600a165627a7a72305820b8b0426702cb63b88220cb0e9fdeaeeec52e0637a8614d4edf7277bd65b5c30a0029",
  "source": "\npragma solidity ^0.4.18;\n\ncontract RedPacket {\n\n//struct\n    struct User {\n        uint256 user_key;\n        uint256[] packet_create;                //\n        uint256[] packet_get;                   //\n    }\n\n    struct Record {\n        uint256 record_key;                     //key\n        uint256 packet_key;                     //key\n        uint256 number;                         //\n        address get_address;                    //\n        uint256 time;                           //\n        uint256 money;                          //\n    }\n\n    struct Packet {\n        uint256 packet_key;                     //key\n        address create_address;                 //\n        uint256 time;                           //\n        uint256 money;                          //\n        uint256 all_count;                      //\n        uint256 count;                          //\n        bool ave;                               //\n        bool crypto;                            //\n        string password;                        //\n        bool finish;                            //\n        uint256[] records;                     //\n        bool flag;                              //\n        uint256 balance;                        //\n        string content;                         //\n    }\n\n//para\n    uint256 tron = 1000000;                 //\n    //uint256 tron = 1000000000000000000; \n    uint256 packetkey = 1;                 //key\n    uint256 recordkey = 1;                 //key\n    uint256 userkey = 1;                 //key\n    uint256 finishkey = 1;\n    address owneraddress;\n\n\n//mapping\n    mapping(uint256 => Packet) packets;\n    mapping(address => User) users;\n    mapping(uint256 => Record) records;\n    mapping(uint256 => uint256) finishpackets;\n\n//event\n    event createPacketSuccess(uint256);\n    event getPacketSuccess(uint256);\n\n//tron\n    constructor () public {\n        owneraddress = msg.sender;        \n        //init();         \n    }\n/*\n    function init () public {\n\n    }\n*/\n\n//modifier\n    modifier onlyOwner () {\n        require(msg.sender == owneraddress);\n        _;\n    }\n\n//user\n    function checkUser() private view returns (bool) {\n        User memory user = users[msg.sender];\n        if(user.user_key > 0) {\n            return true;\n        }\n        return false;\n    }\n\n    function getUserkey () private view returns(uint256) {\n        return userkey;\n    }\n\n    function createUser () private {\n        uint256 _user_key = getUserkey();\n        uint256[] memory _packet_create;\n        uint256[] memory _packet_get;\n        User memory user = User({user_key:_user_key, packet_create:_packet_create, packet_get:_packet_get});\n        users[msg.sender] = user;\n    }\n\n    function getUser () public view returns (uint256, uint256[], uint256[]) {\n        User memory user = users[msg.sender];\n        return(user.user_key, user.packet_create, user.packet_get);\n    }\n\n\n    function updatePacketcreate (uint256 _packet_key) private {\n        User storage user = users[msg.sender];\n        uint256[] storage _packet_create = user.packet_create;\n        bool flag = true;\n        for(uint256 i = 0; i < _packet_create.length; i++){\n            if(_packet_create[i] == _packet_key) {\n                flag = false;\n                break;\n            }\n        }\n        if(flag){\n            _packet_create.push(_packet_key);\n            user.packet_create = _packet_create;\n            users[msg.sender] = user;\n        }  \n    }\n\n    function updatePacketget (uint256 _packet_key) private {\n        User storage user = users[msg.sender];\n        uint256[] storage _packet_get = user.packet_get;\n        bool flag = true;\n        for(uint256 i = 0; i < _packet_get.length; i++){\n            if(_packet_get[i] == _packet_key) {\n                flag = false;\n                break;\n            }\n        }\n        if(flag){\n            _packet_get.push(_packet_key);\n            user.packet_get = _packet_get;\n            users[msg.sender] = user;\n        }\n    }\n\n//packet\n    function getPacketstruct (uint256 _key) public view returns (uint256, address, uint256, uint256, uint256, uint256, bool, bool, bool, uint256[], uint256, string) {\n        Packet memory packet = packets[_key];\n        return(packet.packet_key, packet.create_address, packet.time, packet.money, packet.all_count, packet.count, packet.ave, packet.crypto, packet.finish, packet.records, packet.balance, packet.content);\n    }\n\n    function getPacketkey () public view returns (uint256) {\n        return(packetkey);\n    }\n\n    function updatePacketkey () private {\n        packetkey++;\n    }\n\n    //create packet\n    function createPacket (uint256 _money, uint256 _all_count, bool _ave, bool _crypto, string _password, string _content) public payable {\n        require(_money > _all_count);\n        require(msg.value >= _money * tron);\n        if(checkUser() == false) {\n            createUser();\n        }\n        uint256 _packet_key = getPacketkey();\n        uint256[] memory _records;\n        Packet memory packet = Packet({packet_key:_packet_key, create_address:msg.sender,time:now,money:_money * tron ,all_count:_all_count,count:0,ave:_ave,crypto:_crypto,password:_password,finish:false, records:_records, flag:true, balance:_money * tron, content:_content});\n        packets[_packet_key] = packet;\n        updatePacketkey ();\n        updatePacketcreate(_packet_key);\n        emit createPacketSuccess(_packet_key);\n    }\n\n   //check\n\n   //check have finish\n\n    function checkFinish (uint256 _packet_key) private view returns(bool) {\n        Packet memory packet = packets[_packet_key];\n        return packet.finish;\n    }\n\n    function checkPacketget (uint256 _packet_key) private view returns(bool) {\n        User memory user = users[msg.sender];\n        uint256[] memory getlist = user.packet_get;\n        bool flag = false;\n        for(uint256 i = 0; i < getlist.length; i++){\n            if(getlist[i] == _packet_key) {\n                flag = true;\n                break;\n            }\n        }\n        return flag;\n    }\n\n    function checkGet(uint256 _packet_key) private view returns(bool) {\n        if((checkFinish(_packet_key) == false) && (checkPacketget(_packet_key) == false)) {\n            return true;\n        }\n        return false;\n    }\n\n    function getRecordkey () public view returns (uint256) {\n        return recordkey;\n    }\n\n    function getRandommoney (uint256 max_money) private view returns (uint256) {\n        uint256 money = uint256(sha256(abi.encodePacked(now, msg.sender))) % max_money + 1;\n        return money;\n    }\n\n    function getFinishkey () public view returns (uint256) {\n        return finishkey;\n    }\n\n    function getFinishpacket (uint256 _key) public view returns (uint256) {\n        return finishpackets[_key];\n    }\n\n    function addFinishkey () private {\n        finishkey ++;\n    }\n\n    function addFinishpacket (uint256 _packet_key) private {\n        uint256 _finishkey = getFinishkey();\n        finishpackets[_finishkey] = _packet_key;\n        addFinishkey();\n    }\n\n    function updatePacket (uint256 _packet_key) private {\n        Packet storage packet = packets[_packet_key];\n        require(packet.flag);\n        packet.flag = false;\n        packets[_packet_key] = packet;\n        packet.count ++;\n        uint256 get_money;\n        if(packet.count == packet.all_count){\n            get_money = packet.balance;\n        }\n        else if (packet.ave) {\n            get_money = packet.money / packet.all_count;\n        }\n        else {\n            uint256 max_money = packet.balance - (packet.all_count - packet.count);\n            get_money = getRandommoney(max_money);\n        }\n        uint256 _number = packet.count;\n        if(packet.count == packet.all_count) {\n            packet.finish = true;\n            addFinishpacket(_packet_key);\n        }\n        uint256[] storage _records = packet.records;\n        uint256 _record_key = getRecordkey();\n        addRecord(_record_key, _packet_key, _number, get_money);\n        _records.push(_record_key);\n        packet.records = _records;\n        packet.balance = packet.balance - get_money;\n        packet.flag = true;\n        packets[_packet_key] = packet;\n        msg.sender.transfer(get_money);\n    }   \n\n    function addRecord (uint256 _record_key, uint256 _packet_key, uint256 _number, uint256 _money) private {\n        Record memory record = Record({record_key:_record_key, packet_key:_packet_key, number:_number, get_address:msg.sender, time:now, money:_money});\n        records[_record_key] = record;\n        recordkey ++;\n    }\n\n    function getRecord (uint256 _record_key) public view returns (uint256, address, uint256, uint256) {\n        Record memory record = records[_record_key];\n        return(record.number, record.get_address, record.time, record.money);\n    }\n    \n    function strEqual(string strA, string strB) private pure returns(bool) {\n        bytes memory byteA = bytes(strA);\n        bytes memory byteB = bytes(strB);\n        if (byteA.length != byteB.length) {\n            return false;\n        }else {\n            for (uint256 i=0; i < byteA.length; i++){\n                if (byteA[i] != byteB[i]) {\n                    return false;\n                }\n            }\n        }\n        return true;\n    }\n\n    function checkPassword(uint256 _packet_key, string _password) private view returns(bool) {\n        Packet memory packet = packets[_packet_key];\n        if(packet.crypto == false) {\n            return true;\n        }\n        else {\n            if(strEqual(_password,packet.password)) {\n                return true;\n            }\n            return false;\n        }\n    }\n\n    function getPacket (uint256 _packet_key, string _password) public {\n        if(checkUser() == false) {\n            createUser();\n        }\n        require(checkGet(_packet_key));\n        require(checkPassword(_packet_key,_password));\n        updatePacket(_packet_key);\n        updatePacketget(_packet_key);\n        emit getPacketSuccess(_packet_key);\n    }\n}\n",
  "sourcePath": "/home/liyuankun/tron/RedPacket-migrate/contracts/RedPacket.sol",
  "compiler": {
    "name": "solc",
    "version": "0.4.24-develop.2018.8.28+commit.3ba0cdec.mod.Emscripten.clang"
  },
  "schemaVersion": "2.0.1",
  "updatedAt": "2018-12-29T03:27:12.221Z"
}