{
  "contractName": "NoSecret",
  "abi": [
    {
      "inputs": [],
      "payable": false,
      "stateMutability": "nonpayable",
      "type": "constructor"
    },
    {
      "anonymous": false,
      "inputs": [
        {
          "indexed": false,
          "name": "",
          "type": "address"
        }
      ],
      "name": "createuserSucess",
      "type": "event"
    },
    {
      "anonymous": false,
      "inputs": [
        {
          "indexed": false,
          "name": "",
          "type": "uint256"
        }
      ],
      "name": "createcircleSucess",
      "type": "event"
    },
    {
      "anonymous": false,
      "inputs": [
        {
          "indexed": false,
          "name": "",
          "type": "uint256"
        }
      ],
      "name": "createmessageSuccess",
      "type": "event"
    },
    {
      "anonymous": false,
      "inputs": [
        {
          "indexed": false,
          "name": "",
          "type": "uint256"
        },
        {
          "indexed": false,
          "name": "",
          "type": "uint256"
        }
      ],
      "name": "paymessageSucess",
      "type": "event"
    },
    {
      "anonymous": false,
      "inputs": [
        {
          "indexed": false,
          "name": "",
          "type": "uint256[]"
        }
      ],
      "name": "joincircleSucess",
      "type": "event"
    },
    {
      "constant": true,
      "inputs": [],
      "name": "getUser",
      "outputs": [
        {
          "name": "",
          "type": "uint256"
        },
        {
          "name": "",
          "type": "uint256"
        },
        {
          "name": "",
          "type": "uint256"
        },
        {
          "name": "",
          "type": "uint256[]"
        },
        {
          "name": "",
          "type": "uint256[]"
        }
      ],
      "payable": false,
      "stateMutability": "view",
      "type": "function"
    },
    {
      "constant": true,
      "inputs": [],
      "name": "checkUser",
      "outputs": [
        {
          "name": "",
          "type": "bool"
        }
      ],
      "payable": false,
      "stateMutability": "view",
      "type": "function"
    },
    {
      "constant": true,
      "inputs": [],
      "name": "getUserKey",
      "outputs": [
        {
          "name": "",
          "type": "uint256"
        }
      ],
      "payable": false,
      "stateMutability": "view",
      "type": "function"
    },
    {
      "constant": true,
      "inputs": [
        {
          "name": "_circle_key",
          "type": "uint256"
        }
      ],
      "name": "checkHavecircl",
      "outputs": [
        {
          "name": "",
          "type": "bool"
        }
      ],
      "payable": false,
      "stateMutability": "view",
      "type": "function"
    },
    {
      "constant": true,
      "inputs": [
        {
          "name": "_circle_key",
          "type": "uint256"
        }
      ],
      "name": "getCircle",
      "outputs": [
        {
          "name": "",
          "type": "uint256"
        },
        {
          "name": "",
          "type": "address"
        },
        {
          "name": "",
          "type": "uint256"
        }
      ],
      "payable": false,
      "stateMutability": "view",
      "type": "function"
    },
    {
      "constant": true,
      "inputs": [
        {
          "name": "_circle_key",
          "type": "uint256"
        }
      ],
      "name": "checkCircle",
      "outputs": [
        {
          "name": "",
          "type": "bool"
        }
      ],
      "payable": false,
      "stateMutability": "view",
      "type": "function"
    },
    {
      "constant": true,
      "inputs": [],
      "name": "getCircleKey",
      "outputs": [
        {
          "name": "",
          "type": "uint256"
        }
      ],
      "payable": false,
      "stateMutability": "view",
      "type": "function"
    },
    {
      "constant": true,
      "inputs": [
        {
          "name": "_message_key",
          "type": "uint256"
        }
      ],
      "name": "getMessage",
      "outputs": [
        {
          "name": "",
          "type": "uint256"
        },
        {
          "name": "",
          "type": "uint256"
        },
        {
          "name": "",
          "type": "address"
        },
        {
          "name": "",
          "type": "uint256"
        }
      ],
      "payable": false,
      "stateMutability": "view",
      "type": "function"
    },
    {
      "constant": true,
      "inputs": [
        {
          "name": "_message_key",
          "type": "uint256"
        }
      ],
      "name": "checkMessage",
      "outputs": [
        {
          "name": "",
          "type": "bool"
        }
      ],
      "payable": false,
      "stateMutability": "view",
      "type": "function"
    },
    {
      "constant": true,
      "inputs": [],
      "name": "getMessageKey",
      "outputs": [
        {
          "name": "",
          "type": "uint256"
        }
      ],
      "payable": false,
      "stateMutability": "view",
      "type": "function"
    },
    {
      "constant": true,
      "inputs": [],
      "name": "getCreatefee",
      "outputs": [
        {
          "name": "",
          "type": "uint256"
        }
      ],
      "payable": false,
      "stateMutability": "view",
      "type": "function"
    },
    {
      "constant": false,
      "inputs": [
        {
          "name": "_create_fee",
          "type": "uint256"
        }
      ],
      "name": "updateCreatefee",
      "outputs": [],
      "payable": false,
      "stateMutability": "nonpayable",
      "type": "function"
    },
    {
      "constant": true,
      "inputs": [],
      "name": "getGas",
      "outputs": [
        {
          "name": "",
          "type": "uint256"
        }
      ],
      "payable": false,
      "stateMutability": "view",
      "type": "function"
    },
    {
      "constant": false,
      "inputs": [
        {
          "name": "_gas",
          "type": "uint256"
        }
      ],
      "name": "updateGas",
      "outputs": [],
      "payable": false,
      "stateMutability": "nonpayable",
      "type": "function"
    },
    {
      "constant": true,
      "inputs": [],
      "name": "getProfit",
      "outputs": [
        {
          "name": "",
          "type": "uint256"
        }
      ],
      "payable": false,
      "stateMutability": "view",
      "type": "function"
    },
    {
      "constant": false,
      "inputs": [
        {
          "name": "_circle_join",
          "type": "uint256[]"
        }
      ],
      "name": "createUser",
      "outputs": [],
      "payable": false,
      "stateMutability": "nonpayable",
      "type": "function"
    },
    {
      "constant": false,
      "inputs": [
        {
          "name": "_fee",
          "type": "uint256"
        }
      ],
      "name": "createCircle",
      "outputs": [],
      "payable": true,
      "stateMutability": "payable",
      "type": "function"
    },
    {
      "constant": false,
      "inputs": [
        {
          "name": "_circle_key",
          "type": "uint256"
        }
      ],
      "name": "createMessage",
      "outputs": [],
      "payable": false,
      "stateMutability": "nonpayable",
      "type": "function"
    },
    {
      "constant": false,
      "inputs": [
        {
          "name": "_message_key",
          "type": "uint256"
        },
        {
          "name": "money",
          "type": "uint256"
        }
      ],
      "name": "payMessage",
      "outputs": [],
      "payable": true,
      "stateMutability": "payable",
      "type": "function"
    },
    {
      "constant": false,
      "inputs": [
        {
          "name": "_circle_keys",
          "type": "uint256[]"
        }
      ],
      "name": "joinCircle",
      "outputs": [],
      "payable": true,
      "stateMutability": "payable",
      "type": "function"
    }
  ],
  "bytecode": "0x6080604052600180556001600255600160035560016004556001600555600060065534801561002d57600080fd5b50336000806101000a81548173ffffffffffffffffffffffffffffffffffffffff021916908373ffffffffffffffffffffffffffffffffffffffff16021790555061207a8061007d6000396000f300608060405260043610610112576000357c0100000000000000000000000000000000000000000000000000000000900463ffffffff1680630943c2e5146101175780631e03b6be1461014457806322ab5c821461016f578063248f369a146101d557806341daaaba146102005780634b3c2a451461022b5780635cbfeea21461027057806364ccecde1461029b57806366a83a4f14610316578063679dffb414610341578063832880e71461036c57806386f79edb1461043557806393709315146104b7578063971ff179146104fc5780639fb9d9cd14610541578063c020df481461059a578063c1562547146105c7578063c4e23903146105f6578063e8ec883214610616578063f3999ebe14610643575b600080fd5b34801561012357600080fd5b506101426004803603810190808035906020019092919050505061066d565b005b34801561015057600080fd5b506101596107b2565b6040518082815260200191505060405180910390f35b34801561017b57600080fd5b506101d3600480360381019080803590602001908201803590602001908080602002602001604051908101604052809392919081815260200183836020028082843782019150505050505091929192905050506107bc565b005b3480156101e157600080fd5b506101ea610914565b6040518082815260200191505060405180910390f35b34801561020c57600080fd5b5061021561091e565b6040518082815260200191505060405180910390f35b34801561023757600080fd5b5061025660048036038101908080359060200190929190505050610928565b604051808215151515815260200191505060405180910390f35b34801561027c57600080fd5b506102856109e8565b6040518082815260200191505060405180910390f35b3480156102a757600080fd5b506102c6600480360381019080803590602001909291905050506109f2565b604051808481526020018373ffffffffffffffffffffffffffffffffffffffff1673ffffffffffffffffffffffffffffffffffffffff168152602001828152602001935050505060405180910390f35b34801561032257600080fd5b5061032b610aa7565b6040518082815260200191505060405180910390f35b34801561034d57600080fd5b50610356610ab1565b6040518082815260200191505060405180910390f35b34801561037857600080fd5b50610381610abb565b604051808681526020018581526020018481526020018060200180602001838103835285818151815260200191508051906020019060200280838360005b838110156103da5780820151818401526020810190506103bf565b50505050905001838103825284818151815260200191508051906020019060200280838360005b8381101561041c578082015181840152602081019050610401565b5050505090500197505050505050505060405180910390f35b34801561044157600080fd5b5061046060048036038101908080359060200190929190505050610c17565b604051808581526020018481526020018373ffffffffffffffffffffffffffffffffffffffff1673ffffffffffffffffffffffffffffffffffffffff16815260200182815260200194505050505060405180910390f35b3480156104c357600080fd5b506104e260048036038101908080359060200190929190505050610cde565b604051808215151515815260200191505060405180910390f35b34801561050857600080fd5b5061052760048036038101908080359060200190929190505050610ebe565b604051808215151515815260200191505060405180910390f35b61059860048036038101908080359060200190820180359060200190808060200260200160405190810160405280939291908181526020018383602002808284378201915050505050509192919290505050610f74565b005b3480156105a657600080fd5b506105c560048036038101908080359060200190929190505050611150565b005b3480156105d357600080fd5b506105dc6111b5565b604051808215151515815260200191505060405180910390f35b610614600480360381019080803590602001909291905050506112f9565b005b34801561062257600080fd5b5061064160048036038101908080359060200190929190505050611467565b005b61066b60048036038101908080359060200190929190803590602001909291905050506114cc565b005b600080610678611ee3565b6106806111b5565b151561068b57600080fd5b61069484610cde565b151561069f57600080fd5b6106a7610914565b92503391506080604051908101604052808481526020018581526020018373ffffffffffffffffffffffffffffffffffffffff168152602001600081525090508060096000858152602001908152602001600020600082015181600001556020820151816001015560408201518160020160006101000a81548173ffffffffffffffffffffffffffffffffffffffff021916908373ffffffffffffffffffffffffffffffffffffffff160217905550606082015181600301559050506003600081548092919060010191905055507f66403da0973c32d63fc5a9de256ddb149b4f6740c5feaae14b9f7b90768576e6836040518082815260200191505060405180910390a150505050565b6000600454905090565b600060606107c8611f22565b6107d06109e8565b925060a060405190810160405280848152602001600081526020016000815260200183815260200185815250905080600760003373ffffffffffffffffffffffffffffffffffffffff1673ffffffffffffffffffffffffffffffffffffffff1681526020019081526020016000206000820151816000015560208201518160010155604082015181600201556060820151816003019080519060200190610878929190611f52565b506080820151816004019080519060200190610895929190611f52565b509050506001600081548092919060010191905055507f650b720739774eb8eb8f2fd3d1210e8768f1c7c00e3f548861ea28a9b2745a4433604051808273ffffffffffffffffffffffffffffffffffffffff1673ffffffffffffffffffffffffffffffffffffffff16815260200191505060405180910390a150505050565b6000600354905090565b6000600254905090565b6000610932611ee3565b600960008481526020019081526020016000206080604051908101604052908160008201548152602001600182015481526020016002820160009054906101000a900473ffffffffffffffffffffffffffffffffffffffff1673ffffffffffffffffffffffffffffffffffffffff1673ffffffffffffffffffffffffffffffffffffffff16815260200160038201548152505090506000816000015111156109dd57600191506109e2565b600091505b50919050565b6000600154905090565b60008060006109ff611f9f565b6008600086815260200190815260200160002060606040519081016040529081600082015481526020016001820160009054906101000a900473ffffffffffffffffffffffffffffffffffffffff1673ffffffffffffffffffffffffffffffffffffffff1673ffffffffffffffffffffffffffffffffffffffff1681526020016002820154815250509050806000015181602001518260400151935093509350509193909250565b6000600554905090565b6000600654905090565b6000806000606080610acb611f22565b600760003373ffffffffffffffffffffffffffffffffffffffff1673ffffffffffffffffffffffffffffffffffffffff16815260200190815260200160002060a0604051908101604052908160008201548152602001600182015481526020016002820154815260200160038201805480602002602001604051908101604052809291908181526020018280548015610b8357602002820191906000526020600020905b815481526020019060010190808311610b6f575b5050505050815260200160048201805480602002602001604051908101604052809291908181526020018280548015610bdb57602002820191906000526020600020905b815481526020019060010190808311610bc7575b50505050508152505090508060000151816020015182604001518360600151846080015181915080905095509550955095509550509091929394565b600080600080610c25611ee3565b600960008781526020019081526020016000206080604051908101604052908160008201548152602001600182015481526020016002820160009054906101000a900473ffffffffffffffffffffffffffffffffffffffff1673ffffffffffffffffffffffffffffffffffffffff1673ffffffffffffffffffffffffffffffffffffffff168152602001600382015481525050905080600001518160200151826040015183606001519450945094509450509193509193565b6000610ce8611f22565b6060806000610cf686610ebe565b1515610d0157600080fd5b600760003373ffffffffffffffffffffffffffffffffffffffff1673ffffffffffffffffffffffffffffffffffffffff16815260200190815260200160002060a0604051908101604052908160008201548152602001600182015481526020016002820154815260200160038201805480602002602001604051908101604052809291908181526020018280548015610db957602002820191906000526020600020905b815481526020019060010190808311610da5575b5050505050815260200160048201805480602002602001604051908101604052809291908181526020018280548015610e1157602002820191906000526020600020905b815481526020019060010190808311610dfd575b50505050508152505093508360600151925083608001519150600090505b8251811015610e6d578281815181101515610e4657fe5b90602001906020020151861415610e605760019450610eb5565b8080600101915050610e2f565b600090505b8151811015610eb0578181815181101515610e8957fe5b90602001906020020151861415610ea35760019450610eb5565b8080600101915050610e72565b600094505b50505050919050565b6000610ec8611f9f565b6008600084815260200190815260200160002060606040519081016040529081600082015481526020016001820160009054906101000a900473ffffffffffffffffffffffffffffffffffffffff1673ffffffffffffffffffffffffffffffffffffffff1673ffffffffffffffffffffffffffffffffffffffff1681526020016002820154815250509050600081600001511115610f695760019150610f6e565b600091505b50919050565b6000806000806000806000610f876111b5565b1515610f9257600080fd5b349650600090505b8751811015611099578781815181101515610fb157fe5b906020019060200201519550610fc686610ebe565b1515610fd157600080fd5b610fda86611660565b9450610fe586610cde565b151561108c5760008511156110815784871015151561100357600080fd5b6064600554860281151561101357fe5b049250828503915061102486611702565b935061103084836117a4565b61105b6000809054906101000a900473ffffffffffffffffffffffffffffffffffffffff16846117a4565b611064836117ef565b61106e84866117fd565b611077866119d0565b848703965061108b565b61108a866119d0565b5b5b8080600101915050610f9a565b60008711156110ce576110cd6000809054906101000a900473ffffffffffffffffffffffffffffffffffffffff16886117a4565b5b7f1ae09e1ad35f2ac8de15e7ff76fb2225a1842aa3d03ecc4ca48a8668fc592fc8886040518080602001828103825283818151815260200191508051906020019060200280838360005b83811015611133578082015181840152602081019050611118565b505050509050019250505060405180910390a15050505050505050565b6000809054906101000a900473ffffffffffffffffffffffffffffffffffffffff1673ffffffffffffffffffffffffffffffffffffffff163373ffffffffffffffffffffffffffffffffffffffff161415156111ab57600080fd5b8060058190555050565b60006111bf611f22565b600760003373ffffffffffffffffffffffffffffffffffffffff1673ffffffffffffffffffffffffffffffffffffffff16815260200190815260200160002060a060405190810160405290816000820154815260200160018201548152602001600282015481526020016003820180548060200260200160405190810160405280929190818152602001828054801561127757602002820191906000526020600020905b815481526020019060010190808311611263575b50505050508152602001600482018054806020026020016040519081016040528092919081815260200182805480156112cf57602002820191906000526020600020905b8154815260200190600101908083116112bb575b50505050508152505090506000816000015111156112f057600191506112f5565b600091505b5090565b600080611304611f9f565b600454341015151561131557600080fd5b61131d6111b5565b151561132857600080fd5b61133061091e565b92503391506060604051908101604052808481526020018373ffffffffffffffffffffffffffffffffffffffff16815260200185815250905080600860008581526020019081526020016000206000820151816000015560208201518160010160006101000a81548173ffffffffffffffffffffffffffffffffffffffff021916908373ffffffffffffffffffffffffffffffffffffffff160217905550604082015181600201559050506002600081548092919060010191905055506114186000809054906101000a900473ffffffffffffffffffffffffffffffffffffffff16346117a4565b611421346117ef565b61142a83611ad9565b7f41a1e31a95c3b050a7f696b718c811ab4b0ab46ebbccc218971d1bb8ab256a7b836040518082815260200191505060405180910390a150505050565b6000809054906101000a900473ffffffffffffffffffffffffffffffffffffffff1673ffffffffffffffffffffffffffffffffffffffff163373ffffffffffffffffffffffffffffffffffffffff161415156114c257600080fd5b8060048190555050565b6114d4611ee3565b60008060006114e16111b5565b15156114ec57600080fd5b8434101515156114fb57600080fd5b600960008781526020019081526020016000206080604051908101604052908160008201548152602001600182015481526020016002820160009054906101000a900473ffffffffffffffffffffffffffffffffffffffff1673ffffffffffffffffffffffffffffffffffffffff1673ffffffffffffffffffffffffffffffffffffffff168152602001600382015481525050935061159986610928565b15156115a457600080fd5b83604001519250606460055434028115156115bb57fe5b04915081850390506115f06000809054906101000a900473ffffffffffffffffffffffffffffffffffffffff168287036117a4565b6115fb8186036117ef565b61160583826117a4565b61160f8686611be2565b6116198382611d10565b7fe925406e0fc66c75b6a3dc30ac15c976f8dc368ecc8744432c933f7c865fe40f8686604051808381526020018281526020019250505060405180910390a1505050505050565b600061166a611f9f565b6008600084815260200190815260200160002060606040519081016040529081600082015481526020016001820160009054906101000a900473ffffffffffffffffffffffffffffffffffffffff1673ffffffffffffffffffffffffffffffffffffffff1673ffffffffffffffffffffffffffffffffffffffff16815260200160028201548152505090508060400151915050919050565b600061170c611f9f565b6008600084815260200190815260200160002060606040519081016040529081600082015481526020016001820160009054906101000a900473ffffffffffffffffffffffffffffffffffffffff1673ffffffffffffffffffffffffffffffffffffffff1673ffffffffffffffffffffffffffffffffffffffff16815260200160028201548152505090508060200151915050919050565b8173ffffffffffffffffffffffffffffffffffffffff166108fc829081150290604051600060405180830381858888f193505050501580156117ea573d6000803e3d6000fd5b505050565b806006540160068190555050565b611805611f22565b600760008473ffffffffffffffffffffffffffffffffffffffff1673ffffffffffffffffffffffffffffffffffffffff16815260200190815260200160002060a06040519081016040529081600082015481526020016001820154815260200160028201548152602001600382018054806020026020016040519081016040528092919081815260200182805480156118bd57602002820191906000526020600020905b8154815260200190600101908083116118a9575b505050505081526020016004820180548060200260200160405190810160405280929190818152602001828054801561191557602002820191906000526020600020905b815481526020019060010190808311611901575b50505050508152505090508181604001510181604001818152505080600760003373ffffffffffffffffffffffffffffffffffffffff1673ffffffffffffffffffffffffffffffffffffffff16815260200190815260200160002060008201518160000155602082015181600101556040820151816002015560608201518160030190805190602001906119aa929190611f52565b5060808201518160040190805190602001906119c7929190611f52565b50905050505050565b600080600760003373ffffffffffffffffffffffffffffffffffffffff1673ffffffffffffffffffffffffffffffffffffffff16815260200190815260200160002091508160040190508083908060018154018082558091505090600182039060005260206000200160009091929091909150555081600760003373ffffffffffffffffffffffffffffffffffffffff1673ffffffffffffffffffffffffffffffffffffffff1681526020019081526020016000206000820154816000015560018201548160010155600282015481600201556003820181600301908054611ab9929190611fd7565b506004820181600401908054611ad0929190611fd7565b50905050505050565b600080600760003373ffffffffffffffffffffffffffffffffffffffff1673ffffffffffffffffffffffffffffffffffffffff16815260200190815260200160002091508160030190508083908060018154018082558091505090600182039060005260206000200160009091929091909150555081600760003373ffffffffffffffffffffffffffffffffffffffff1673ffffffffffffffffffffffffffffffffffffffff1681526020019081526020016000206000820154816000015560018201548160010155600282015481600201556003820181600301908054611bc2929190611fd7565b506004820181600401908054611bd9929190611fd7565b50905050505050565b611bea611ee3565b600960008481526020019081526020016000206080604051908101604052908160008201548152602001600182015481526020016002820160009054906101000a900473ffffffffffffffffffffffffffffffffffffffff1673ffffffffffffffffffffffffffffffffffffffff1673ffffffffffffffffffffffffffffffffffffffff1681526020016003820154815250509050818160600151018160600181815250508060096000858152602001908152602001600020600082015181600001556020820151816001015560408201518160020160006101000a81548173ffffffffffffffffffffffffffffffffffffffff021916908373ffffffffffffffffffffffffffffffffffffffff16021790555060608201518160030155905050505050565b611d18611f22565b600760008473ffffffffffffffffffffffffffffffffffffffff1673ffffffffffffffffffffffffffffffffffffffff16815260200190815260200160002060a0604051908101604052908160008201548152602001600182015481526020016002820154815260200160038201805480602002602001604051908101604052809291908181526020018280548015611dd057602002820191906000526020600020905b815481526020019060010190808311611dbc575b5050505050815260200160048201805480602002602001604051908101604052809291908181526020018280548015611e2857602002820191906000526020600020905b815481526020019060010190808311611e14575b50505050508152505090508181602001510181602001818152505080600760003373ffffffffffffffffffffffffffffffffffffffff1673ffffffffffffffffffffffffffffffffffffffff1681526020019081526020016000206000820151816000015560208201518160010155604082015181600201556060820151816003019080519060200190611ebd929190611f52565b506080820151816004019080519060200190611eda929190611f52565b50905050505050565b6080604051908101604052806000815260200160008152602001600073ffffffffffffffffffffffffffffffffffffffff168152602001600081525090565b60a06040519081016040528060008152602001600081526020016000815260200160608152602001606081525090565b828054828255906000526020600020908101928215611f8e579160200282015b82811115611f8d578251825591602001919060010190611f72565b5b509050611f9b9190612029565b5090565b60606040519081016040528060008152602001600073ffffffffffffffffffffffffffffffffffffffff168152602001600081525090565b8280548282559060005260206000209081019282156120185760005260206000209182015b82811115612017578254825591600101919060010190611ffc565b5b5090506120259190612029565b5090565b61204b91905b8082111561204757600081600090555060010161202f565b5090565b905600a165627a7a72305820c56ed8b2a9088e3f390c67e54abc990ce96a9cff20bfda11cd63ac33d103d2350029",
  "source": "pragma solidity ^0.4.18;\n\ncontract NoSecret {\n\n//struct\n    struct User {\n        uint256 user_key;\n        uint256 money_give;\n        uint256 money_join;\n        uint256[] circle_create;\n        uint256[] circle_join;\n    }\n\n    struct Circle {\n        uint256 circle_key;\n        address owner_address;\n        uint256 fee;\n    }\n\n    struct Message {\n        uint256 message_key;\n        uint256 circle_key;\n        address owner_address;\n        uint256 money;\n    }\n\n//para\n    address owneraddress;\n    uint256 userkey = 1;\n    uint256 circlekey = 1;\n    uint256 messagekey = 1;\n    uint256 create_fee = 1;\n    uint256 gas = 1;\n    uint256 profit = 0;\n\n//mapping\n    mapping(address => User) users;\n    mapping(uint256 => Circle) circles;\n    mapping(uint256 => Message) messages;\n\n//event\n    event createuserSucess(address);\n    event createcircleSucess(uint256);\n    event createmessageSuccess(uint256);\n    event paymessageSucess(uint256, uint256);\n    event joincircleSucess(uint256[]);\n\n//tron\n    constructor () public {\n        owneraddress = msg.sender;        \n        //init();         \n    }\n/*\n    function init () public {\n\n    }\n*/\n\n//modifier\n    modifier onlyOwner () {\n        require(msg.sender == owneraddress);\n        _;\n    }\n\n    modifier onlyEnough () {\n        require(msg.value >= create_fee);\n        _;\n    }\n\n    modifier onlyUser () {\n        User memory user = users[msg.sender];\n        require(user.user_key > 0);\n        _;\n    }\n\n//user\n    //user\n    function getUser () public view returns(uint256, uint256, uint256, uint256[], uint256[]) {\n        User memory user = users[msg.sender]; \n        return(user.user_key, user.money_give, user.money_join, user.circle_create,user.circle_join);\n    }\n\n    //check user\n    function checkUser () public view returns(bool) {\n        User memory user = users[msg.sender]; \n        if(user.user_key > 0) {\n            return true;\n        }\n        return false;\n    }\n\n    //userkey\n    function getUserKey () public view returns (uint256) {\n        return userkey;\n    }\n\n    //update user.circle_join\n    function updateUserCirclejoin (uint256 _circle_key) private {\n        User storage user = users[msg.sender]; \n        uint256[] storage _circle_join = user.circle_join;\n        _circle_join.push(_circle_key);\n        users[msg.sender] = user;\n    }\n\n    //update user.circle_create\n    function updateUserCirclecreate (uint256 _circle_key) private {\n        User storage user = users[msg.sender]; \n        uint256[] storage _circle_create = user.circle_create;\n        _circle_create.push(_circle_key);\n        users[msg.sender] = user;\n    }\n\n    //update user.money_give\n    function updateUserMoneygive (address owner, uint256 money) private {\n        User memory user = users[owner]; \n        user.money_give = user.money_give + money;\n        users[msg.sender] = user;\n    }\n\n    //update user.money_join\n    function updateUserMoneyjoin (address owner, uint256 money) private {\n        User memory user = users[owner]; \n        user.money_join = user.money_join + money;\n        users[msg.sender] = user;\n    }\n\n    //check circle in circle_join or circle_create\n    function checkHavecircl (uint256 _circle_key) public view returns(bool) {\n        require(checkCircle(_circle_key));\n        User memory user = users[msg.sender];\n        uint256[] memory _circle_ceate = user.circle_create;\n        uint256[] memory _circle_join = user.circle_join;\n        for (uint256 i = 0; i < _circle_ceate.length; i++) {\n            if (_circle_key == _circle_ceate[i]) {\n                return true;\n            }\n        }\n        for (i = 0; i < _circle_join.length; i++) {\n            if (_circle_key == _circle_join[i]) {\n                return true;\n            }\n        }\n        return false;\n    }\n\n//circle\n    //circle\n    function getCircle (uint256 _circle_key) public view returns(uint256, address, uint256) {\n        Circle memory circle = circles[_circle_key]; \n        return(circle.circle_key, circle.owner_address, circle.fee);\n    }\n\n    //check circle\n    function checkCircle (uint256 _circle_key) public view returns(bool) {\n        Circle memory circle = circles[_circle_key]; \n        if (circle.circle_key > 0) {\n            return true;\n        }\n        return false;\n    }\n\n    //circlekey\n    function getCircleKey () public view returns (uint256) {\n        return circlekey;\n    }\n\n    //circle.fee\n    function getCirclefee (uint256 _circle_key) private view returns (uint256) {\n        Circle memory circle = circles[_circle_key];\n        return circle.fee ;\n    }\n\n    //circle.owner_address\n    function getCircleowner (uint256 _circle_key) private view returns (address) {\n        Circle memory circle = circles[_circle_key];\n        return circle.owner_address;\n    }\n\n    //circle.key\n    function getCirclekey (uint256 _circle_key) private view returns (uint256) {\n        Circle memory circle = circles[_circle_key];\n        return circle.circle_key;\n    }\n\n//message\n    //message\n    function getMessage (uint256 _message_key) public view returns(uint256, uint256, address, uint256) {\n        Message memory message = messages[_message_key]; \n        return(message.message_key, message.circle_key, message.owner_address, message.money);\n    }\n\n    //check message\n    function checkMessage (uint256 _message_key) public view returns(bool) {\n        Message memory message = messages[_message_key]; \n        if(message.message_key > 0){\n            return true;\n        }\n        return false;\n    }\n\n    //messagekey\n    function getMessageKey () public view returns (uint256) {\n        return messagekey;\n    }\n\n    //message.message_key\n    function getMessagekey (uint256 _message_key) private view returns (uint256) {\n        Message memory message = messages[_message_key];\n        return message.message_key;\n    }\n\n    //message.owner_address\n    function getMessageowner (uint256 _message_key) private view returns (address) {\n        Message memory message = messages[_message_key];\n        return message.owner_address;\n    }\n\n    // message.money\n    function updateMessagemoney (uint256 _message_key, uint256 money) private {\n        Message memory message = messages[_message_key];\n        message.money = message.money + money;\n        messages[_message_key] = message;\n    }\n\n//create_fee\n    //get \n    function getCreatefee () public view returns (uint256) {\n        return create_fee;\n    }\n    //update\n    function updateCreatefee (uint256 _create_fee) public onlyOwner{\n        create_fee = _create_fee;\n    }\n\n//gas\n    //get\n    function getGas () public view returns (uint256) {\n        return gas;\n    }\n\n    //update\n    function updateGas (uint256 _gas) public onlyOwner{\n        gas = _gas;\n    }\n\n//profit\n    //get\n    function getProfit () public view returns (uint256) {\n        return profit;\n    }\n\n    //update\n    function updateProfit (uint256 _profit) private {\n        profit = profit + _profit;\n    }\n\n//money\n    //pay\n    function pay2owner (address target_address, uint256 _value) private {\n        target_address.transfer(_value);\n    } \n \n//-----------------------------------------core-----------------------------------------\n//create user\n    function createUser (uint256[] _circle_join) public {\n        uint256 _user_key = getUserKey();\n        uint256[] memory _circle_create;\n        User memory user = User({user_key:_user_key, money_give:0, money_join:0, circle_create:_circle_create, circle_join:_circle_join});\n        users[msg.sender] = user;\n        userkey ++;\n        emit createuserSucess(msg.sender);\n    }\n\n//create circle\n    function createCircle (uint256 _fee) public payable onlyEnough{\n        require(checkUser());\n        uint256 _circle_key = getCircleKey();\n        address _owner_address = msg.sender;\n        Circle memory circle = Circle({circle_key:_circle_key, owner_address:_owner_address, fee:_fee});\n        circles[_circle_key] = circle;\n        circlekey ++;\n        pay2owner(owneraddress,msg.value);\n        updateProfit(msg.value);\n        updateUserCirclecreate(_circle_key);\n        emit createcircleSucess(_circle_key);\n    }\n\n//create message\n    function createMessage (uint256 _circle_key) public {\n        require(checkUser());\n        require(checkHavecircl(_circle_key));\n        uint256 _message_key = getMessageKey();\n        address _owner_address = msg.sender;\n        Message memory message = Message({message_key:_message_key, circle_key:_circle_key, owner_address:_owner_address, money:0});\n        messages[_message_key] = message;\n        messagekey ++;\n        emit createmessageSuccess(_message_key);\n    }\n\n//pay message\n    function payMessage (uint256 _message_key, uint256 money) public payable {\n        require(checkUser());\n        require(msg.value >= money);\n        Message memory message = messages[_message_key];\n        require(checkMessage(_message_key)); \n        address message_owner = message.owner_address;\n        uint256 gas_fee = msg.value * gas / 100;\n        uint256 pay_fee = money - gas_fee;\n        pay2owner(owneraddress, money - pay_fee);\n        updateProfit(money - pay_fee);\n        pay2owner(message_owner, pay_fee);\n        updateMessagemoney (_message_key, money);\n        updateUserMoneygive (message_owner, pay_fee);\n        emit paymessageSucess(_message_key, money);\n    }\n\n//join circle\n    function joinCircle (uint256[] _circle_keys) public payable {\n        require(checkUser());\n        uint256 all_fee = msg.value;\n        uint256 _circle_key;\n        uint256 circle_fee;\n        address circle_owner;\n        uint256 gas_fee;\n        uint256 pay_fee;\n        for(uint256 i = 0; i < _circle_keys.length; i++) {\n            _circle_key = _circle_keys[i];\n            require(checkCircle(_circle_key));\n            circle_fee = getCirclefee(_circle_key);\n            if(!checkHavecircl(_circle_key)){\n                if(circle_fee > 0) {\n                    require(all_fee >= circle_fee);\n                    gas_fee = circle_fee * gas / 100;\n                    pay_fee = circle_fee - gas_fee;\n                    circle_owner = getCircleowner(_circle_key);\n                    pay2owner(circle_owner,pay_fee);\n                    pay2owner(owneraddress,gas_fee);\n                    updateProfit(gas_fee);\n                    updateUserMoneyjoin(circle_owner, circle_fee);\n                    updateUserCirclejoin (_circle_key);\n                    all_fee = all_fee - circle_fee;\n                }\n                else {\n                    updateUserCirclejoin (_circle_key);\n                }\n            }\n        }\n        if (all_fee > 0) {\n            pay2owner(owneraddress,all_fee);\n        }\n        emit joincircleSucess(_circle_keys);\n    }\n}",
  "sourcePath": "/Users/wkorz/work/tron/tronbox/contracts/NoSecret.sol",
  "compiler": {
    "name": "solc",
    "version": "0.4.24-develop.2018.8.28+commit.3ba0cdec.mod.Emscripten.clang"
  },
  "schemaVersion": "2.0.1",
  "updatedAt": "2018-12-11T03:32:29.733Z"
}